{
  "contractName": "myToken",
  "abi": [
    {
      "inputs": [],
      "stateMutability": "nonpayable",
      "type": "constructor"
    },
    {
      "anonymous": false,
      "inputs": [
        {
          "indexed": true,
          "internalType": "address",
          "name": "owner",
          "type": "address"
        },
        {
          "indexed": true,
          "internalType": "address",
          "name": "spender",
          "type": "address"
        },
        {
          "indexed": false,
          "internalType": "uint256",
          "name": "value",
          "type": "uint256"
        }
      ],
      "name": "Approval",
      "type": "event"
    },
    {
      "anonymous": false,
      "inputs": [
        {
          "indexed": true,
          "internalType": "address",
          "name": "from",
          "type": "address"
        },
        {
          "indexed": true,
          "internalType": "address",
          "name": "to",
          "type": "address"
        },
        {
          "indexed": false,
          "internalType": "uint256",
          "name": "value",
          "type": "uint256"
        }
      ],
      "name": "Transfer",
      "type": "event"
    },
    {
      "inputs": [],
      "name": "_INITIAL_SUPPLY",
      "outputs": [
        {
          "internalType": "uint256",
          "name": "",
          "type": "uint256"
        }
      ],
      "stateMutability": "view",
      "type": "function"
    },
    {
      "inputs": [],
      "name": "_decimals",
      "outputs": [
        {
          "internalType": "uint8",
          "name": "",
          "type": "uint8"
        }
      ],
      "stateMutability": "view",
      "type": "function"
    },
    {
      "inputs": [],
      "name": "_name",
      "outputs": [
        {
          "internalType": "string",
          "name": "",
          "type": "string"
        }
      ],
      "stateMutability": "view",
      "type": "function"
    },
    {
      "inputs": [],
      "name": "_symbol",
      "outputs": [
        {
          "internalType": "string",
          "name": "",
          "type": "string"
        }
      ],
      "stateMutability": "view",
      "type": "function"
    },
    {
      "inputs": [
        {
          "internalType": "address",
          "name": "owner",
          "type": "address"
        },
        {
          "internalType": "address",
          "name": "spender",
          "type": "address"
        }
      ],
      "name": "allowance",
      "outputs": [
        {
          "internalType": "uint256",
          "name": "",
          "type": "uint256"
        }
      ],
      "stateMutability": "view",
      "type": "function"
    },
    {
      "inputs": [
        {
          "internalType": "address",
          "name": "spender",
          "type": "address"
        },
        {
          "internalType": "uint256",
          "name": "amount",
          "type": "uint256"
        }
      ],
      "name": "approve",
      "outputs": [
        {
          "internalType": "bool",
          "name": "",
          "type": "bool"
        }
      ],
      "stateMutability": "nonpayable",
      "type": "function"
    },
    {
      "inputs": [
        {
          "internalType": "address",
          "name": "account",
          "type": "address"
        }
      ],
      "name": "balanceOf",
      "outputs": [
        {
          "internalType": "uint256",
          "name": "",
          "type": "uint256"
        }
      ],
      "stateMutability": "view",
      "type": "function"
    },
    {
      "inputs": [],
      "name": "decimals",
      "outputs": [
        {
          "internalType": "uint8",
          "name": "",
          "type": "uint8"
        }
      ],
      "stateMutability": "view",
      "type": "function"
    },
    {
      "inputs": [
        {
          "internalType": "address",
          "name": "spender",
          "type": "address"
        },
        {
          "internalType": "uint256",
          "name": "subtractedValue",
          "type": "uint256"
        }
      ],
      "name": "decreaseAllowance",
      "outputs": [
        {
          "internalType": "bool",
          "name": "",
          "type": "bool"
        }
      ],
      "stateMutability": "nonpayable",
      "type": "function"
    },
    {
      "inputs": [
        {
          "internalType": "address",
          "name": "spender",
          "type": "address"
        },
        {
          "internalType": "uint256",
          "name": "addedValue",
          "type": "uint256"
        }
      ],
      "name": "increaseAllowance",
      "outputs": [
        {
          "internalType": "bool",
          "name": "",
          "type": "bool"
        }
      ],
      "stateMutability": "nonpayable",
      "type": "function"
    },
    {
      "inputs": [],
      "name": "name",
      "outputs": [
        {
          "internalType": "string",
          "name": "",
          "type": "string"
        }
      ],
      "stateMutability": "view",
      "type": "function"
    },
    {
      "inputs": [],
      "name": "symbol",
      "outputs": [
        {
          "internalType": "string",
          "name": "",
          "type": "string"
        }
      ],
      "stateMutability": "view",
      "type": "function"
    },
    {
      "inputs": [],
      "name": "totalSupply",
      "outputs": [
        {
          "internalType": "uint256",
          "name": "",
          "type": "uint256"
        }
      ],
      "stateMutability": "view",
      "type": "function"
    },
    {
      "inputs": [
        {
          "internalType": "address",
          "name": "recipient",
          "type": "address"
        },
        {
          "internalType": "uint256",
          "name": "amount",
          "type": "uint256"
        }
      ],
      "name": "transfer",
      "outputs": [
        {
          "internalType": "bool",
          "name": "",
          "type": "bool"
        }
      ],
      "stateMutability": "nonpayable",
      "type": "function"
    },
    {
      "inputs": [
        {
          "internalType": "address",
          "name": "sender",
          "type": "address"
        },
        {
          "internalType": "address",
          "name": "recipient",
          "type": "address"
        },
        {
          "internalType": "uint256",
          "name": "amount",
          "type": "uint256"
        }
      ],
      "name": "transferFrom",
      "outputs": [
        {
          "internalType": "bool",
          "name": "",
          "type": "bool"
        }
      ],
      "stateMutability": "nonpayable",
      "type": "function"
    },
    {
      "inputs": [
        {
          "internalType": "address",
          "name": "_addressVerif",
          "type": "address"
        }
      ],
      "name": "setAddressVerif",
      "outputs": [],
      "stateMutability": "nonpayable",
      "type": "function"
    },
    {
      "inputs": [],
      "name": "getAddressVerif",
      "outputs": [
        {
          "internalType": "address",
          "name": "adr",
          "type": "address"
        }
      ],
      "stateMutability": "view",
      "type": "function"
    },
    {
      "inputs": [
        {
          "internalType": "address",
          "name": "_addr",
          "type": "address"
        }
      ],
      "name": "getBalanceHash",
      "outputs": [
        {
          "internalType": "string",
          "name": "",
          "type": "string"
        }
      ],
      "stateMutability": "view",
      "type": "function"
    },
    {
      "inputs": [
        {
          "internalType": "address",
          "name": "_to",
          "type": "address"
        },
        {
          "internalType": "string",
          "name": "hashSenderBalanceAfter",
          "type": "string"
        },
        {
          "internalType": "string",
          "name": "hashReceiverBalanceAfter",
          "type": "string"
        },
        {
          "components": [
            {
              "internalType": "uint256[2]",
              "name": "a",
              "type": "uint256[2]"
            },
            {
              "internalType": "uint256[2][2]",
              "name": "b",
              "type": "uint256[2][2]"
            },
            {
              "internalType": "uint256[2]",
              "name": "c",
              "type": "uint256[2]"
            },
            {
              "internalType": "uint256[3]",
              "name": "input",
              "type": "uint256[3]"
            }
          ],
          "internalType": "struct myToken.VerifParameters",
          "name": "vSender",
          "type": "tuple"
        },
        {
          "components": [
            {
              "internalType": "uint256[2]",
              "name": "a",
              "type": "uint256[2]"
            },
            {
              "internalType": "uint256[2][2]",
              "name": "b",
              "type": "uint256[2][2]"
            },
            {
              "internalType": "uint256[2]",
              "name": "c",
              "type": "uint256[2]"
            },
            {
              "internalType": "uint256[3]",
              "name": "input",
              "type": "uint256[3]"
            }
          ],
          "internalType": "struct myToken.VerifParameters",
          "name": "vReceiver",
          "type": "tuple"
        }
      ],
      "name": "transferConfidentiel",
      "outputs": [
        {
          "internalType": "bool",
          "name": "val",
          "type": "bool"
        }
      ],
      "stateMutability": "nonpayable",
      "type": "function"
    }
  ],
  "bytecode": "0x60806040526040518060400160405280600a81526020017f4e6f6d4475546f6b656e00000000000000000000000000000000000000000000815250600690805190602001906200005192919062000495565b506040518060400160405280600381526020017f4e44540000000000000000000000000000000000000000000000000000000000815250600790805190602001906200009f92919062000495565b506002600860006101000a81548160ff021916908360ff16021790555062b71b00600955348015620000d057600080fd5b5060068054600181600116156101000203166002900480601f0160208091040260200160405190810160405280929190818152602001828054600181600116156101000203166002900480156200016b5780601f106200013f576101008083540402835291602001916200016b565b820191906000526020600020905b8154815290600101906020018083116200014d57829003601f168201915b505050505060078054600181600116156101000203166002900480601f0160208091040260200160405190810160405280929190818152602001828054600181600116156101000203166002900480156200020a5780601f10620001de576101008083540402835291602001916200020a565b820191906000526020600020905b815481529060010190602001808311620001ec57829003601f168201915b5050505050600860009054906101000a900460ff1682600390805190602001906200023792919062000495565b5081600490805190602001906200025092919062000495565b5080600560006101000a81548160ff021916908360ff16021790555050505062000283336009546200028960201b60201c565b62000655565b600073ffffffffffffffffffffffffffffffffffffffff168273ffffffffffffffffffffffffffffffffffffffff161415620002fc576040517f08c379a0000000000000000000000000000000000000000000000000000000008152600401620002f390620005fb565b60405180910390fd5b62000310600083836200043860201b60201c565b6200032c816002546200043d60201b62000c801790919060201c565b6002819055506200038a816000808573ffffffffffffffffffffffffffffffffffffffff1673ffffffffffffffffffffffffffffffffffffffff168152602001908152602001600020546200043d60201b62000c801790919060201c565b6000808473ffffffffffffffffffffffffffffffffffffffff1673ffffffffffffffffffffffffffffffffffffffff168152602001908152602001600020819055508173ffffffffffffffffffffffffffffffffffffffff16600073ffffffffffffffffffffffffffffffffffffffff167fddf252ad1be2c89b69c2b068fc378daa952ba7f163c4a11628f55a4df523b3ef836040516200042c91906200061d565b60405180910390a35050565b505050565b6000808284019050838110156200048b576040517f08c379a00000000000000000000000000000000000000000000000000000000081526004016200048290620005d9565b60405180910390fd5b8091505092915050565b828054600181600116156101000203166002900490600052602060002090601f016020900481019282601f10620004d857805160ff191683800117855562000509565b8280016001018555821562000509579182015b8281111562000508578251825591602001919060010190620004eb565b5b5090506200051891906200051c565b5090565b6200054191905b808211156200053d57600081600090555060010162000523565b5090565b90565b600062000553601b836200063a565b91507f536166654d6174683a206164646974696f6e206f766572666c6f7700000000006000830152602082019050919050565b600062000595601f836200063a565b91507f45524332303a206d696e7420746f20746865207a65726f2061646472657373006000830152602082019050919050565b620005d3816200064b565b82525050565b60006020820190508181036000830152620005f48162000544565b9050919050565b60006020820190508181036000830152620006168162000586565b9050919050565b6000602082019050620006346000830184620005c8565b92915050565b600082825260208201905092915050565b6000819050919050565b61203c80620006656000396000f3fe608060405234801561001057600080fd5b50600436106101215760003560e01c8063574d6bb1116100ad578063a457c2d711610071578063a457c2d714610334578063a9059cbb14610364578063b09f126614610394578063d28d8852146103b2578063dd62ed3e146103d057610121565b8063574d6bb11461027a57806370a08231146102985780637a2d9407146102c85780637beeee16146102f857806395d89b411461031657610121565b806318160ddd116100f457806318160ddd146101c057806323b872dd146101de578063313ce5671461020e57806332424aa31461022c578063395093511461024a57610121565b806301dbf48b1461012657806306fdde0314610142578063095ea7b314610160578063142b78b414610190575b600080fd5b610140600480360381019061013b919061161a565b610400565b005b61014a610444565b6040516101579190611c41565b60405180910390f35b61017a60048036038101906101759190611777565b6104e6565b6040516101879190611c26565b60405180910390f35b6101aa60048036038101906101a591906116ce565b610504565b6040516101b79190611c26565b60405180910390f35b6101c8610617565b6040516101d59190611d03565b60405180910390f35b6101f860048036038101906101f3919061167f565b610621565b6040516102059190611c26565b60405180910390f35b6102166106fa565b6040516102239190611d1e565b60405180910390f35b610234610711565b6040516102419190611d1e565b60405180910390f35b610264600480360381019061025f9190611777565b610724565b6040516102719190611c26565b60405180910390f35b6102826107d7565b60405161028f9190611d03565b60405180910390f35b6102b260048036038101906102ad919061161a565b6107dd565b6040516102bf9190611d03565b60405180910390f35b6102e260048036038101906102dd919061161a565b610825565b6040516102ef9190611c41565b60405180910390f35b610300610906565b60405161030d9190611bc4565b60405180910390f35b61031e610930565b60405161032b9190611c41565b60405180910390f35b61034e60048036038101906103499190611777565b6109d2565b60405161035b9190611c26565b60405180910390f35b61037e60048036038101906103799190611777565b610a9f565b60405161038b9190611c26565b60405180910390f35b61039c610abd565b6040516103a99190611c41565b60405180910390f35b6103ba610b5b565b6040516103c79190611c41565b60405180910390f35b6103ea60048036038101906103e59190611643565b610bf9565b6040516103f79190611d03565b60405180910390f35b80600b60006101000a81548173ffffffffffffffffffffffffffffffffffffffff021916908373ffffffffffffffffffffffffffffffffffffffff16021790555050565b606060038054600181600116156101000203166002900480601f0160208091040260200160405190810160405280929190818152602001828054600181600116156101000203166002900480156104dc5780601f106104b1576101008083540402835291602001916104dc565b820191906000526020600020905b8154815290600101906020018083116104bf57829003601f168201915b5050505050905090565b60006104fa6104f3610cd5565b8484610cdd565b6001905092915050565b60008061052584600001518560200151866040015187606001516001610ea8565b9050600061054784600001518560200151866040015187606001516002610ea8565b9050600092508180156105575750805b156106095786600a60003373ffffffffffffffffffffffffffffffffffffffff1673ffffffffffffffffffffffffffffffffffffffff16815260200190815260200160002090805190602001906105af929190611310565b5085600a60008a73ffffffffffffffffffffffffffffffffffffffff1673ffffffffffffffffffffffffffffffffffffffff1681526020019081526020016000209080519060200190610603929190611310565b50600192505b829250505095945050505050565b6000600254905090565b600061062e84848461101b565b6106ef8461063a610cd5565b6106ea85604051806060016040528060288152602001611fba60289139600160008b73ffffffffffffffffffffffffffffffffffffffff1673ffffffffffffffffffffffffffffffffffffffff16815260200190815260200160002060006106a0610cd5565b73ffffffffffffffffffffffffffffffffffffffff1673ffffffffffffffffffffffffffffffffffffffff168152602001908152602001600020546112b09092919063ffffffff16565b610cdd565b600190509392505050565b6000600560009054906101000a900460ff16905090565b600860009054906101000a900460ff1681565b60006107cd610731610cd5565b846107c88560016000610742610cd5565b73ffffffffffffffffffffffffffffffffffffffff1673ffffffffffffffffffffffffffffffffffffffff16815260200190815260200160002060008973ffffffffffffffffffffffffffffffffffffffff1673ffffffffffffffffffffffffffffffffffffffff16815260200190815260200160002054610c8090919063ffffffff16565b610cdd565b6001905092915050565b60095481565b60008060008373ffffffffffffffffffffffffffffffffffffffff1673ffffffffffffffffffffffffffffffffffffffff168152602001908152602001600020549050919050565b6060600a60008373ffffffffffffffffffffffffffffffffffffffff1673ffffffffffffffffffffffffffffffffffffffff1681526020019081526020016000208054600181600116156101000203166002900480601f0160208091040260200160405190810160405280929190818152602001828054600181600116156101000203166002900480156108fa5780601f106108cf576101008083540402835291602001916108fa565b820191906000526020600020905b8154815290600101906020018083116108dd57829003601f168201915b50505050509050919050565b6000600b60009054906101000a900473ffffffffffffffffffffffffffffffffffffffff16905090565b606060048054600181600116156101000203166002900480601f0160208091040260200160405190810160405280929190818152602001828054600181600116156101000203166002900480156109c85780601f1061099d576101008083540402835291602001916109c8565b820191906000526020600020905b8154815290600101906020018083116109ab57829003601f168201915b5050505050905090565b6000610a956109df610cd5565b84610a9085604051806060016040528060258152602001611fe26025913960016000610a09610cd5565b73ffffffffffffffffffffffffffffffffffffffff1673ffffffffffffffffffffffffffffffffffffffff16815260200190815260200160002060008a73ffffffffffffffffffffffffffffffffffffffff1673ffffffffffffffffffffffffffffffffffffffff168152602001908152602001600020546112b09092919063ffffffff16565b610cdd565b6001905092915050565b6000610ab3610aac610cd5565b848461101b565b6001905092915050565b60078054600181600116156101000203166002900480601f016020809104026020016040519081016040528092919081815260200182805460018160011615610100020316600290048015610b535780601f10610b2857610100808354040283529160200191610b53565b820191906000526020600020905b815481529060010190602001808311610b3657829003601f168201915b505050505081565b60068054600181600116156101000203166002900480601f016020809104026020016040519081016040528092919081815260200182805460018160011615610100020316600290048015610bf15780601f10610bc657610100808354040283529160200191610bf1565b820191906000526020600020905b815481529060010190602001808311610bd457829003601f168201915b505050505081565b6000600160008473ffffffffffffffffffffffffffffffffffffffff1673ffffffffffffffffffffffffffffffffffffffff16815260200190815260200160002060008373ffffffffffffffffffffffffffffffffffffffff1673ffffffffffffffffffffffffffffffffffffffff16815260200190815260200160002054905092915050565b600080828401905083811015610ccb576040517f08c379a0000000000000000000000000000000000000000000000000000000008152600401610cc290611ca3565b60405180910390fd5b8091505092915050565b600033905090565b600073ffffffffffffffffffffffffffffffffffffffff168373ffffffffffffffffffffffffffffffffffffffff161415610d4d576040517f08c379a0000000000000000000000000000000000000000000000000000000008152600401610d4490611ce3565b60405180910390fd5b600073ffffffffffffffffffffffffffffffffffffffff168273ffffffffffffffffffffffffffffffffffffffff161415610dbd576040517f08c379a0000000000000000000000000000000000000000000000000000000008152600401610db490611c83565b60405180910390fd5b80600160008573ffffffffffffffffffffffffffffffffffffffff1673ffffffffffffffffffffffffffffffffffffffff16815260200190815260200160002060008473ffffffffffffffffffffffffffffffffffffffff1673ffffffffffffffffffffffffffffffffffffffff168152602001908152602001600020819055508173ffffffffffffffffffffffffffffffffffffffff168373ffffffffffffffffffffffffffffffffffffffff167f8c5be1e5ebec7d5bd14f71427d1e84f3dd0314c0f7b2291e5b200ac8c7c3b92583604051610e9b9190611d03565b60405180910390a3505050565b600080600b60009054906101000a900473ffffffffffffffffffffffffffffffffffffffff1690506001831415610f70578073ffffffffffffffffffffffffffffffffffffffff1663203437bc888888886040518563ffffffff1660e01b8152600401610f189493929190611bdf565b60206040518083038186803b158015610f3057600080fd5b505afa158015610f44573d6000803e3d6000fd5b505050506040513d601f19601f82011682018060405250810190610f6891906117b3565b915050611012565b6002831415611010578073ffffffffffffffffffffffffffffffffffffffff1663d249f925888888886040518563ffffffff1660e01b8152600401610fb89493929190611bdf565b60206040518083038186803b158015610fd057600080fd5b505afa158015610fe4573d6000803e3d6000fd5b505050506040513d601f19601f8201168201806040525081019061100891906117b3565b915050611012565b505b95945050505050565b600073ffffffffffffffffffffffffffffffffffffffff168373ffffffffffffffffffffffffffffffffffffffff16141561108b576040517f08c379a000000000000000000000000000000000000000000000000000000000815260040161108290611cc3565b60405180910390fd5b600073ffffffffffffffffffffffffffffffffffffffff168273ffffffffffffffffffffffffffffffffffffffff1614156110fb576040517f08c379a00000000000000000000000000000000000000000000000000000000081526004016110f290611c63565b60405180910390fd5b61110683838361130b565b61117181604051806060016040528060268152602001611f94602691396000808773ffffffffffffffffffffffffffffffffffffffff1673ffffffffffffffffffffffffffffffffffffffff168152602001908152602001600020546112b09092919063ffffffff16565b6000808573ffffffffffffffffffffffffffffffffffffffff1673ffffffffffffffffffffffffffffffffffffffff16815260200190815260200160002081905550611204816000808573ffffffffffffffffffffffffffffffffffffffff1673ffffffffffffffffffffffffffffffffffffffff16815260200190815260200160002054610c8090919063ffffffff16565b6000808473ffffffffffffffffffffffffffffffffffffffff1673ffffffffffffffffffffffffffffffffffffffff168152602001908152602001600020819055508173ffffffffffffffffffffffffffffffffffffffff168373ffffffffffffffffffffffffffffffffffffffff167fddf252ad1be2c89b69c2b068fc378daa952ba7f163c4a11628f55a4df523b3ef836040516112a39190611d03565b60405180910390a3505050565b60008383111582906112f8576040517f08c379a00000000000000000000000000000000000000000000000000000000081526004016112ef9190611c41565b60405180910390fd5b5060008385039050809150509392505050565b505050565b828054600181600116156101000203166002900490600052602060002090601f016020900481019282601f1061135157805160ff191683800117855561137f565b8280016001018555821561137f579182015b8281111561137e578251825591602001919060010190611363565b5b50905061138c9190611390565b5090565b6113b291905b808211156113ae576000816000905550600101611396565b5090565b90565b6000813590506113c481611f4e565b92915050565b600082601f8301126113db57600080fd5b60026113ee6113e982611d66565b611d39565b9150818385604084028201111561140457600080fd5b60005b83811015611434578161141a888261143e565b845260208401935060408301925050600181019050611407565b5050505092915050565b600082601f83011261144f57600080fd5b600261146261145d82611d88565b611d39565b9150818385602084028201111561147857600080fd5b60005b838110156114a8578161148e8882611605565b84526020840193506020830192505060018101905061147b565b5050505092915050565b600082601f8301126114c357600080fd5b60036114d66114d182611daa565b611d39565b915081838560208402820111156114ec57600080fd5b60005b8381101561151c57816115028882611605565b8452602084019350602083019250506001810190506114ef565b5050505092915050565b60008151905061153581611f65565b92915050565b600082601f83011261154c57600080fd5b813561155f61155a82611dcc565b611d39565b9150808252602083016020830185838301111561157b57600080fd5b611586838284611efb565b50505092915050565b600061016082840312156115a257600080fd5b6115ac6080611d39565b905060006115bc8482850161143e565b60008301525060406115d0848285016113ca565b60208301525060c06115e48482850161143e565b6040830152506101006115f9848285016114b2565b60608301525092915050565b60008135905061161481611f7c565b92915050565b60006020828403121561162c57600080fd5b600061163a848285016113b5565b91505092915050565b6000806040838503121561165657600080fd5b6000611664858286016113b5565b9250506020611675858286016113b5565b9150509250929050565b60008060006060848603121561169457600080fd5b60006116a2868287016113b5565b93505060206116b3868287016113b5565b92505060406116c486828701611605565b9150509250925092565b600080600080600061032086880312156116e757600080fd5b60006116f5888289016113b5565b955050602086013567ffffffffffffffff81111561171257600080fd5b61171e8882890161153b565b945050604086013567ffffffffffffffff81111561173b57600080fd5b6117478882890161153b565b93505060606117588882890161158f565b9250506101c061176a8882890161158f565b9150509295509295909350565b6000806040838503121561178a57600080fd5b6000611798858286016113b5565b92505060206117a985828601611605565b9150509250929050565b6000602082840312156117c557600080fd5b60006117d384828501611526565b91505092915050565b60006117e88383611872565b60408301905092915050565b60006118008383611b97565b60208301905092915050565b61181581611ea6565b82525050565b61182481611e16565b61182e8184611e69565b925061183982611df8565b8060005b8381101561186a57815161185187826117dc565b965061185c83611e42565b92505060018101905061183d565b505050505050565b61187b81611e21565b6118858184611e74565b925061189082611e02565b8060005b838110156118c15781516118a887826117f4565b96506118b383611e4f565b925050600181019050611894565b505050505050565b6118d281611e21565b6118dc8184611e7f565b92506118e782611e02565b8060005b838110156119185781516118ff87826117f4565b965061190a83611e4f565b9250506001810190506118eb565b505050505050565b61192981611e2c565b6119338184611e8a565b925061193e82611e0c565b8060005b8381101561196f57815161195687826117f4565b965061196183611e5c565b925050600181019050611942565b505050505050565b61198081611eb8565b82525050565b600061199182611e37565b61199b8185611e95565b93506119ab818560208601611f0a565b6119b481611f3d565b840191505092915050565b60006119cc602383611e95565b91507f45524332303a207472616e7366657220746f20746865207a65726f206164647260008301527f65737300000000000000000000000000000000000000000000000000000000006020830152604082019050919050565b6000611a32602283611e95565b91507f45524332303a20617070726f766520746f20746865207a65726f20616464726560008301527f73730000000000000000000000000000000000000000000000000000000000006020830152604082019050919050565b6000611a98601b83611e95565b91507f536166654d6174683a206164646974696f6e206f766572666c6f7700000000006000830152602082019050919050565b6000611ad8602583611e95565b91507f45524332303a207472616e736665722066726f6d20746865207a65726f20616460008301527f64726573730000000000000000000000000000000000000000000000000000006020830152604082019050919050565b6000611b3e602483611e95565b91507f45524332303a20617070726f76652066726f6d20746865207a65726f2061646460008301527f72657373000000000000000000000000000000000000000000000000000000006020830152604082019050919050565b611ba081611ee4565b82525050565b611baf81611ee4565b82525050565b611bbe81611eee565b82525050565b6000602082019050611bd9600083018461180c565b92915050565b600061016082019050611bf560008301876118c9565b611c02604083018661181b565b611c0f60c08301856118c9565b611c1d610100830184611920565b95945050505050565b6000602082019050611c3b6000830184611977565b92915050565b60006020820190508181036000830152611c5b8184611986565b905092915050565b60006020820190508181036000830152611c7c816119bf565b9050919050565b60006020820190508181036000830152611c9c81611a25565b9050919050565b60006020820190508181036000830152611cbc81611a8b565b9050919050565b60006020820190508181036000830152611cdc81611acb565b9050919050565b60006020820190508181036000830152611cfc81611b31565b9050919050565b6000602082019050611d186000830184611ba6565b92915050565b6000602082019050611d336000830184611bb5565b92915050565b6000604051905081810181811067ffffffffffffffff82111715611d5c57600080fd5b8060405250919050565b600067ffffffffffffffff821115611d7d57600080fd5b602082029050919050565b600067ffffffffffffffff821115611d9f57600080fd5b602082029050919050565b600067ffffffffffffffff821115611dc157600080fd5b602082029050919050565b600067ffffffffffffffff821115611de357600080fd5b601f19601f8301169050602081019050919050565b6000819050919050565b6000819050919050565b6000819050919050565b600060029050919050565b600060029050919050565b600060039050919050565b600081519050919050565b6000602082019050919050565b6000602082019050919050565b6000602082019050919050565b600081905092915050565b600081905092915050565b600081905092915050565b600081905092915050565b600082825260208201905092915050565b6000611eb182611ec4565b9050919050565b60008115159050919050565b600073ffffffffffffffffffffffffffffffffffffffff82169050919050565b6000819050919050565b600060ff82169050919050565b82818337600083830152505050565b60005b83811015611f28578082015181840152602081019050611f0d565b83811115611f37576000848401525b50505050565b6000601f19601f8301169050919050565b611f5781611ea6565b8114611f6257600080fd5b50565b611f6e81611eb8565b8114611f7957600080fd5b50565b611f8581611ee4565b8114611f9057600080fd5b5056fe45524332303a207472616e7366657220616d6f756e7420657863656564732062616c616e636545524332303a207472616e7366657220616d6f756e74206578636565647320616c6c6f77616e636545524332303a2064656372656173656420616c6c6f77616e63652062656c6f77207a65726fa2646970667358221220f1e94130f7e5b2569f210df7ba43e4632c386df19f8ab9c846e6cb142c63824664736f6c634300060b0033",
  "immutableReferences": {},
  "source": "pragma solidity ^0.6.0;\npragma experimental ABIEncoderV2;\n\nimport \"node_modules/openzeppelin-solidity/contracts/token/ERC20/ERC20.sol\";\nimport \"./verifierTest.sol\";\n\ncontract myToken is ERC20 {\n\n    string public _name = \"NomDuToken\";\n    string public _symbol = \"NDT\";\n    uint8 public _decimals = 2;\n    uint public _INITIAL_SUPPLY = 12000000;\n\n    //Mapping des hash des balances au lieu des montants\n    mapping (address => string) balanceHashes;\n\n    constructor() public ERC20(_name,_symbol,_decimals){\n    _mint(msg.sender, _INITIAL_SUPPLY);\n    }\n\n\n    // IL FAUT APPELER LES FONCTIONS DU CONTRAT VERIFIER.SOL\n    address addressVerifier;\n    function setAddressVerif(address _addressVerif) public {\n        addressVerifier = _addressVerif;\n    }\n\n    function getAddressVerif() public view returns(address adr){\n        return addressVerifier;\n    }\n\n    function callVerifier(uint[2] memory a,uint[2][2] memory b,uint[2] memory c,uint[3] memory input, uint personne) private view returns(bool) {\n        InterfaceVerifier v = InterfaceVerifier(addressVerifier);\n        if(personne == 1){\n            return v.verifyProofSender(a,b,c,input);\n        }\n        if(personne == 2){\n            return v.verifyProofReceiver(a,b,c,input);\n        }\n    }\n\n    //Dclaration des paramtres pour la fonction callVerifier(a,b,c,input)\n    struct VerifParameters {\n        uint[2] a;\n        uint[2][2] b;\n        uint[2] c;\n        uint[3] input;\n    }\n\n    function getBalanceHash(address _addr) public view returns (string memory){\n        return balanceHashes[_addr];\n    }\n    //  bool senderProofIsCorrect = zksnarkverify(confTxSenderVk, [hashSenderBalanceBefore, hashSenderBalanceAfter, hashValue], zkProofSender);\n    // bool receiverProofIsCorrect = zksnarkverify(confTxReceiverVk, [hashReceiverBalanceBefore, hashReceiverBalanceAfter, hashValue], zkProofReceiver);\n    /*function transferConfidentiel(address _to, bytes32 hashSenderBalanceAfter, bytes32 hashReceiverBalanceAfter,\n        VerifParameters memory vSender, VerifParameters memory vReceiver)*/\n    function transferConfidentiel(address _to, string memory hashSenderBalanceAfter, string memory hashReceiverBalanceAfter,\n        VerifParameters memory vSender, VerifParameters memory vReceiver)\n        public returns(bool val)\n    {\n        bool senderProofIsCorrect = callVerifier(vSender.a,vSender.b,vSender.c,vSender.input,1);\n        bool receiverProofIsCorrect = callVerifier(vReceiver.a,vReceiver.b,vReceiver.c,vReceiver.input,2);\n\n        val = false;\n        if(senderProofIsCorrect && receiverProofIsCorrect){\n            balanceHashes[msg.sender] = hashSenderBalanceAfter;\n            balanceHashes[_to] = hashReceiverBalanceAfter;\n            val = true;\n        }\n        return val;\n    }\n\n}\n",
  "sourcePath": "/home/antoine/TEST_ZKP/ERC20/contracts/myToken.sol",
  "compiler": {
    "name": "solc",
    "version": "0.6.11+commit.5ef660b1.Emscripten.clang"
  },
  "schemaVersion": "3.2.0",
  "updatedAt": "2020-07-08T08:40:09.090Z",
  "devdoc": {
    "kind": "dev",
    "methods": {
      "allowance(address,address)": {
        "details": "See {IERC20-allowance}."
      },
      "approve(address,uint256)": {
        "details": "See {IERC20-approve}. Requirements: - `spender` cannot be the zero address."
      },
      "balanceOf(address)": {
        "details": "See {IERC20-balanceOf}."
      },
      "decimals()": {
        "details": "Returns the number of decimals used to get its user representation. For example, if `decimals` equals `2`, a balance of `505` tokens should be displayed to a user as `5,05` (`505 / 10 ** 2`). Tokens usually opt for a value of 18, imitating the relationship between Ether and Wei. This is the value {ERC20} uses, unless {_setupDecimals} is called. NOTE: This information is only used for _display_ purposes: it in no way affects any of the arithmetic of the contract, including {IERC20-balanceOf} and {IERC20-transfer}."
      },
      "decreaseAllowance(address,uint256)": {
        "details": "Atomically decreases the allowance granted to `spender` by the caller. This is an alternative to {approve} that can be used as a mitigation for problems described in {IERC20-approve}. Emits an {Approval} event indicating the updated allowance. Requirements: - `spender` cannot be the zero address. - `spender` must have allowance for the caller of at least `subtractedValue`."
      },
      "increaseAllowance(address,uint256)": {
        "details": "Atomically increases the allowance granted to `spender` by the caller. This is an alternative to {approve} that can be used as a mitigation for problems described in {IERC20-approve}. Emits an {Approval} event indicating the updated allowance. Requirements: - `spender` cannot be the zero address."
      },
      "name()": {
        "details": "Returns the name of the token."
      },
      "symbol()": {
        "details": "Returns the symbol of the token, usually a shorter version of the name."
      },
      "totalSupply()": {
        "details": "See {IERC20-totalSupply}."
      },
      "transfer(address,uint256)": {
        "details": "See {IERC20-transfer}. Requirements: - `recipient` cannot be the zero address. - the caller must have a balance of at least `amount`."
      },
      "transferFrom(address,address,uint256)": {
        "details": "See {IERC20-transferFrom}. Emits an {Approval} event indicating the updated allowance. This is not required by the EIP. See the note at the beginning of {ERC20}; Requirements: - `sender` and `recipient` cannot be the zero address. - `sender` must have a balance of at least `amount`. - the caller must have allowance for ``sender``'s tokens of at least `amount`."
      }
    },
    "version": 1
  },
  "userdoc": {
    "kind": "user",
    "methods": {},
    "version": 1
  }
}